:100000000C940A020C9427020C9427020C94B3243B
:100010000C94C3210C9427020C9427020C94270201
:100020000C9427020C9427020C9427020C94E419D8
:100030000C9427020C9427020C9427020C9427029C
:100040000C94BC310C9427020C94A7340C94E1312D
:100050000C9427020C9427020C9427020C9427027C
:100060000C9427020C942702720A780A7B0A7E0AF3
:10007000830A8B0A930A2B0B2B0B2B0BA00AA30AC8
:10008000AC0AB50A2B0B2B0B2B0B2B0B2B0B2B0BB7
:10009000C10ACB0AD70ADF0AE20AEB0AF40AFA0A13
:1000A0002B0B2B0B030B0C0B170B980D6C196C19EE
:1000B000A50D6C196C19AF0DBC0DC90DD60D6C19C1
:1000C000DA0D6C19E80D6C19F20DFC0D060E6C19A9
:1000D0006C196C19160E230E300EDD34DF341A3510
:1000E0001A351A351A351A351A351A351A351A3598
:1000F0001A35E534E734E934EB34ED34EF34F134D8
:10010000F3341A35F734F934FB34FD34FF34013558
:100110001A3503350535084AD73B3BCE016E84BC02
:10012000BFFDC12F3D6C74319ABD56833DDA3D0051
:10013000C77F11BED9E4BB4C3E916BAAAABE00009A
:1001400000803F05A84CCDB2D44EB93836A9020C78
:1001500050B9918688083CA6AAAA2ABE0000008051
:100160003F000D0A4772626C20312E3168205B27F8
:10017000242720666F722068656C705D0D0A00246C
:100180004E005B4F50543A005B5645523A312E3187
:10019000682E32303139303833303A005B544C4FAE
:1001A0003A005B4739323A003330003238005B475F
:1001B00000204700204D002053002046002054001E
:1001C00033382E005B47433A47005B484C503A2493
:1001D0002420242320244720244920244E2024782E
:1001E0003D76616C20244E783D6C696E6520244A12
:1001F0003D6C696E652024534C50202443202458C4
:10020000202448207E2021203F206374726C2D78AA
:100210005D0D0A00536C656570696E670052657309
:10022000746F72696E67207370696E646C650052DA
:100230006573746F72696E672064656661756C744E
:10024000730050676D20456E6400436865636B20E2
:100250004C696D69747300436865636B20446F6F0C
:10026000720044697361626C656400456E61626C22
:1002700065640043617574696F6E3A20556E6C6FEA
:10028000636B656400272448277C27245827207443
:100290006F20756E6C6F636B0052657365742074AC
:1002A0006F20636F6E74696E7565005B4D53473ADE
:1002B000004649524D574152455F4E414D453A47E0
:1002C00072626C2C204649524D574152455F55523F
:1002D0004C3A68747470733A2F2F6769746875624A
:1002E0002E636F6D2F6F70656E706E702F67726208
:1002F0006C2C204649524D574152455F564552534A
:10030000494F4E3A20312E31680D0A00414C41527E
:100310004D3A0043726173682050726576656E7461
:1003200065642120506C732052656F6E6E65637436
:1003300020616E642052652D686F6D65007C413AC6
:10034000007C4F763A007C57434F3A007C506E3A1F
:10035000007C46533A007C42663A007C57506F73EB
:100360003A007C4D506F733A00536C6565700044E1
:100370006F6F723A00436865636B00416C61726D28
:1003800000486F6D65004A6F6700486F6C643A0003
:1003900052756E0049646C65009A9931429A9931A0
:1003A000426646844304560E4100401C4600401CF1
:1003B000460000C84400401C4700BADB4900BADBD5
:1003C0004900BA5B4A00BADB4A00009BC30000A5A3
:1003D000C30000F0C1000000800A000419010AD720
:1003E000233C6F12033B00007A4400000000000031
:1003F000000018430000A041FA00000000000D0AB0
:10040000006F6B0D0A005B5052423A006572726FCA
:10041000723A000011241FBECFEFD8E0DEBFCDBF7F
:1004200011E0A0E0B1E0E2E6F5E702C005900D9230
:10043000A830B107D9F727E0A8E0B1E001C01D92CC
:10044000A93FB207E1F70E9477050C94AF3A0C94EC
:1004500000002F923F924F925F926F927F928F9205
:100460009F92AF92BF92CF92DF92EF92FF920F9343
:100470001F93CF93DF93CDB7DEB7C455D1090FB625
:10048000F894DEBF0FBECDBF182F092F7B018091DE
:10049000900185FF26C0D0902A0120E2D21631F1CA
:1004A000812F0E9435218823E1F081E080932D0186
:1004B00038E0D31641F00E94853482E00E941C216E
:1004C0000E9412330EC088E00E942C210E94123339
:1004D00080912B01811105C080912A018111F6CFF5
:1004E000EACF80912A01823009F4E7C20E941233D8
:1004F00080912B018111E1C290919205809131028E
:10050000981303C00E94D931F1CF80919305282E12
:10051000312C96E3929D9001939D300D1124A901F9
:100520004E5C5D4F2B965FAF4EAF2B97FA01119249
:100530009A95E9F7F7019085FA01958BF7014481C7
:100540005581668177812B96EEADFFAD2B9742AB3F
:1005500053AB64AB75AB91FF4CC090E1EAE1F1E0C5
:10056000DE01919601900D929A95E1F724961FAFC6
:10057000249725960FAF25974BE351E027965FAF61
:100580004EAF2797FE01F1966396FFAFEEAF6397EC
:100590009E012F5D3F4F61963FAF2EAF619736E3CF
:1005A000839FC0011124AC014E5C5D4F2F965FAF5D
:1005B0004EAF2F97CE0141962D969FAF8EAF2D97C0
:1005C00029969FAF8EAF299710E086E3829D900118
:1005D000839D300D1124C9018E5C9D4FFC017096E6
:1005E0006596FFAFEEAF65976C01F4E1CF0ED11CBD
:1005F00044C090E1E4E9F5E0B3CF2F96EEADFFAD56
:100600002F9721933193419351932F96FFAFEEAFE4
:100610002F976596EEADFFAD659780809180A280A3
:10062000B38082169306A406B50610F449015A0158
:100630006596EEADFFAD659780829182A282B3820E
:100640000E948937A30192010E94DF362996EEAD00
:10065000FFAD299761937193819391932996FFAF91
:10066000EEAF299720E030E0A9010E94D53687FD42
:100670004AC01F5F143009F458C02596EEADFFAD97
:10068000259761917191819191912596FFAFEEAF80
:1006900025972796EEADFFAD279741905190619039
:1006A00071902796FFAFEEAF2797A30192010E94AA
:1006B00037390E9404396396EEADFFAD63976193BD
:1006C0007193819391936396FFAFEEAF63976196B9
:1006D000EEADFFAD619781909190A190B190619640
:1006E000FFAFEEAF6197681979098A099B099B01F1
:1006F000AC0197FF82CF22273327A901261B370B96
:10070000480B590B7ACF112331F0113031F01230F0
:1007100031F080E105C081E003C082E001C084E0E7
:10072000F6019081892B8083A4CF89288A288B2881
:1007300009F4B4C1CE0141960E9473254B015C01BE
:1007400086E3829D8001839D100D11240E5C1D4F58
:10075000F80182A293A2A4A2B5A2BE016F5E7F4F50
:100760008BE591E00E941D25F801668F778F80A3AD
:1007700091A3BE016F5E7F4F8BE491E00E941D2527
:10078000F80162A773A784A795A7D588D0FC12C0EB
:10079000F7012081318142815381D3FC06C0F801E9
:1007A00026A737A740AB51AB09C0C501B4010E94D1
:1007B0003739F80166A777A780AB91AB9091930585
:1007C00080919205981711F0D1FE0DC086E3829DAD
:1007D000F001839DF00D1124EE5CFD4F168A178AFF
:1007E000108E118E68C024EA35E025963FAF2EAFFB
:1007F00025978E010F5F1F4FAE014F5D5F4F239610
:100800005FAF4EAF2397C12CD12C760126960FAF48
:10081000269728961FAF28972596EEADFFAD259712
:1008200081909190A190B1902596FFAFEEAF259762
:100830002D96EEADFFAD2D97419051906190719046
:100840002D96FFAFEEAF2D97A3019201C501B40124
:100850000E9437399B01AC01C701B6010E94DF3508
:100860006B017C01A5019401C301B2010E94DF3537
:10087000F80161937193819391938F0123962EAD2B
:100880003FAD23972D964EAD5FAD2D9724173507BD
:1008900019F62FEE3FEF4FE75FE3C701B6010E9465
:1008A000F73818166CF486E3829DF001839DF00DF5
:1008B0001124EE5CFD4F16A217A210A611A679C056
:1008C0002FEE3FEF4FE75FEBC701B6010E94D53631
:1008D00087FF11C086E3829DF001839DF00D1124F6
:1008E000EE5CFD4F89E996E7A6E9BEE786A397A3EC
:1008F000A0A7B1A75EC026968FAD269728969FAD7C
:1009000028970E94732526966FAD269728967FAD6F
:1009100028978BE591E00E941D254B015C01A70102
:10092000960160E070E080E89FE30E94DF3520E000
:1009300030E040E05FE30E9437390E94D6396B0116
:100940007C01209180013091810140918201509180
:100950008301C501B4010E943739A70196010E94A5
:1009600037394B015C01A701960160E070E080E837
:100970009FE30E94DF359B01AC01C501B4010E94D9
:10098000DF366B017C0120E030E0A9010E94D53602
:1009900087FF03C0C12CD12C760186E3829DF00134
:1009A000839DF00D1124EE5CFD4FC6A2D7A2E0A6F8
:1009B000F1A686E3829D8001839D100D11240E5CBB
:1009C0001D4FF801858981FD78C02B968EAD9FADB6
:1009D0002B970E941A266B017C018090B4059090A1
:1009E000B505A090B605B090B705A50194010E9489
:1009F000F73818162CF4A5019401C501B40104C000
:100A0000A7019601C701B6010E943739F801628F2C
:100A1000738F848F958F86E3829D8001839D100D57
:100A200011240E5C1D4FF80186A097A0A0A4B1A4CC
:100A3000A5019401628D738D848D958D0E94F73888
:100A400018162CF4F801828E938EA48EB58EC09267
:100A5000B405D092B505E092B605F092B70580E1F5
:100A6000FE017196A4EAB5E001900D928A95E1F736
:100A700080E1FE01F196A4E9B5E001900D928A951E
:100A8000E1F780913102809393058F5F803109F403
:100A900080E0809331020E94AE260FC080919001C9
:100AA00081FF0BC0F701808584FF07C04481558119
:100AB0006681778180E10E943534CC5ADF4F0FB6D2
:100AC000F894DEBF0FBECDBFDF91CF911F910F9184
:100AD000FF90EF90DF90CF90BF90AF909F908F905E
:100AE0007F906F905F904F903F902F900895CF939D
:100AF000DF93CDB7DEB765970FB6F894DEBF0FBEB4
:100B0000CDBF8091C00082608093C0001092C5006C
:100B100080E18093C4008091C10088698093C10006
:100B200080E090E00E9468298A3009F0CFC545E650
:100B300050E061E070E08BE391E00E94F627892BA2
:100B400009F4C4C58AB18C678AB9579A84B18761A0
:100B500084B9809181008F7E809381008091810093
:100B6000886080938100809180008C7F80938000DA
:100B7000809180008F708093800080916E00887FCC
:100B800080936E0014BC15BC80916E0081608093D0
:100B90006E0087B1887F87B988B1876088B98091F6
:100BA0006C00876080936C00809168008260809305
:100BB000680080E1EAE1F1E0DF011D928A95E9F742
:100BC000789410922A018091900184FF03C081E003
:100BD00080932A01FAE22F2EF1E03F2E992493947C
:100BE00080912A0191E1F10111929A95E9F78093A0
:100BF0002A0184E68093310180933201809333018E
:100C000080E1A9E0B1E01D928A95E9F710921901FF
:100C10001092B8051092B9051092BA051092BB0552
:100C200080912E0280932F028CE4E0EAF1E0119291
:100C30008A95E9F768EC71E080E00E94C82881118C
:100C400003C087E00E942A230E9453343C9A3D9AB5
:100C50000E9438320E9403253E98469A80E00E9406
:100C6000FD210E949D260E9487310E9409260E9434
:100C70007F3482E691E00E9417238091900183FFE8
:100C800010C00E94E224882361F090922A018BEA2E
:100C900092E00E9417238AE492E00E9417230E94A8
:100CA000842480912A01817899F08BEA92E00E9455
:100CB000172385E892E00E9417230E9484249092D3
:100CC0002A0110E000E072E0E72EE3E08E2E50C033
:100CD00010922A0110E0812F0E94772881110EC006
:100CE0001092A9078EE30E940B320E94FD208AE336
:100CF0000E940B3287E00E942A2312C08091A9072C
:100D0000882371F00E946F0B082F8EE30E940B3234
:100D10000E94FD208AE30E940B32802F0E9436231E
:100D20001F5F1230C1F6CDCFE92FF0E0E754F94F45
:100D300080819F5F913809F490E090932F028F3F5C
:100D4000E9F08A3021F50E94123380912B01811144
:100D500047CFE12FF0E0E755F84F1082F02FF17008
:100D6000FF2E00FF18C08BE00E942A2310E000E055
:100D700090912F0280912E029813D6CF0E94D931E4
:100D80000E94123380912B01882391F329CF8D305B
:100D900009F076C4D8CF8091A907882309F46DC4DF
:100DA000843209F062C49D8A8091AA07833409F1D4
:100DB00034F4882361F0843209F017C11AC08A34F0
:100DC00059F08835B1F0873409F00FC112C08AECB0
:100DD00091E00E94172347C480912A018F7D09F07A
:100DE00032C48091AB078D3309F035C40E946F0B7C
:100DF0002DC49091AB0791112EC4833409F4C3C064
:100E00001CF4843239F02FC4873469F0883509F432
:100E1000DAC029C480912A018871F82E09F013C420
:100E20000E94722320C484EC91E00E9417238091D9
:100E3000A0018C3838F080EC91E00E94172380915B
:100E4000A0018A580E94F12281EB91E00E941723B1
:100E50008091A6018A5C0E94F12281EB91E00E94C0
:100E600017238091A4018F5E0E94F12281EB91E013
:100E70000E9417238091A20125E1281B822F0E9446
:100E8000F12281EB91E00E9417238091A301865A01
:100E90000E94F12281EB91E00E9417238091A10131
:100EA0009EE5981B892F0E94F1228091A70188233B
:100EB00099F084EB91E00E9417238091A701833081
:100EC00029F08E3139F0823039F404C080E30E9479
:100ED0000B3202C00E94F12284EB91E00E941723A2
:100EE0008091A901803131F0803231F0811107C049
:100EF00085E303C083E301C084E30E940B32809149
:100F0000A801882399F087FF07C084EB91E00E9435
:100F1000172387E30E940B328091A80186FF0DC042
:100F200084EB91E00E94172388E305C084EB91E0F5
:100F30000E94172389E30E940B328DEB91E00E94FF
:100F400017238091B3010E94F1228AEB91E00E9465
:100F500017236091AF017091B0018091B101909120
:100F6000B2010E94AC2287EB91E00E9417236091AE
:100F7000AB017091AC018091AD019091AE0140E068
:100F80000E940F220EC080912A01823069F40E94D3
:100F900085348BEA92E00E94172382E692E00E9459
:100FA00017230E9484245FC381114DC3E0922A015C
:100FB0008BEA92E00E9417238BE692E00E941723AF
:100FC0000E9484243BC080912A01813009F04BC3E8
:100FD0008BEA92E00E94172383E792E00E94172396
:100FE0000E94842410922A013EC390912A019230DB
:100FF00008F029C3893409F4FAC034F4833271F05B
:10100000883409F45AC0A1C1823509F448C1833536
:1010100009F4DBC08E3409F098C171C18091AB072F
:10102000811119C310E0BE016F5F7F4F812F0E94B5
:10103000C828811105C087E00E942A23F12C13C320
:101040008EEA91E00E941723163029F0173041F400
:1010500088EA91E002C08BEA91E00E94172304C065
:1010600086E3810F0E94F1228AE30E940B32CE01B7
:1010700001960E94CA220E9484241F5F183099F6AC
:1010800082EA91E00E94172388ED91E00E94CA2233
:101090000E9484248CE991E00E9417236091E8016A
:1010A0007091E9018091EA019091EB010E94BB22CD
:1010B0000E9484240E948924D6C28091AB078111AA
:1010C000D2C2809190018062809390012091920120
:1010D00030919301409194015091950160916B0181
:1010E00070916C0180916D0190916E010E94E035CC
:1010F00020913B0130913C0140913D0150913E01D6
:101100000E9437390E94513760931A0170931B0176
:1011100080931C0190931D012091960130919701BD
:10112000409198015091990160916F017091700107
:1011300080917101909172010E94E03520913F01F0
:101140003091400140914101509142010E94373954
:101150000E94513760931E0170931F0180932001FC
:101160009093210120919C0130919D0140919E011D
:1011700050919F016091730170917401809175018C
:10118000909176010E94E035209143013091440115
:1011900040914501509146010E9437390E945137D4
:1011A0006093220170932301809324019093250181
:1011B0001092260110922701109228011092290105
:1011C0000E947F340E9409264EC28091AB078C3466
:1011D00009F041C28091AC07803509F03CC2809192
:1011E000AD07811138C280E80E942C213CC2ED8AF3
:1011F0008091AB07811136C040E550E06EEA73E0A4
:1012000089EA97E00E94F627892B51F41092A907EA
:1012100040E550E069EA77E08EEA93E00E943A28E0
:1012200088E891E00E9417230E94FD200E948424F8
:1012300082E891E00E94172386E50E940B328DE43C
:101240000E940B3284E40E940B328CE20E940B322B
:101250008FE00E94F1228CE20E940B3280E80E9413
:10126000F1229FCE8D8A8D3309F0F5C183E0282FBE
:1012700030E0F901E755F84F9081D901AA55B84FF0
:101280009C938F5F90819111F2CF8D8B40E550E060
:1012900069EA77E08EEA93E00E943A28E4C18091FF
:1012A000AB07833509F0D7C18091AC07843509F0CD
:1012B000D2C18091AD078D3309F0CDC18091AF07C8
:1012C0008111C9C18091AE07843239F08A3239F078
:1012D000833209F0C0C182E003C081E001C08FEF1A
:1012E0000E94E9288BEA92E00E9417238FE292E0A5
:1012F0000E9417230E9484240E948534B4C1ED8A81
:101300008091AB0781111DC010E0812F0E947728CA
:10131000811104C087E00E942A230EC08FE791E06C
:101320000E941723812F0E94F1228DE30E940B322D
:101330000E94FD200E9426231F5F123009F493C1F2
:10134000E4CF911180C111E001C010E0BE016F5ED9
:101350007F4FCE0145960E942B35811103C062E07C
:10136000F62E81C1ED8981E08E0F8D8BF0E0E7557F
:10137000F84F90819D3309F06EC1112371F1482F10
:1013800050E0282F30E0F901E755F84F9081241BF9
:10139000350BD901A755B84F9C938F5F9081911160
:1013A000F0CF8D8B0E946F0B811150C169897A89B2
:1013B0008B899C890E941A3A0E945837162F0E94E6
:1013C0002434A1E51A9FC001112440E550E069EAE8
:1013D00077E09D5F0E943A2831CEBE016F5F7F4F5C
:1013E000CE0145960E942B35882309F4B8CFED89AC
:1013F000F0E0E755F84F808181112DC1A988BA88A6
:10140000CB88DC8820E030E04FE753E4C601B5012B
:101410000E94F73818160CF41EC149805A806B8060
:101420007C80C601B5010E945837062F20E030E0CD
:10143000A901C301B2010E94D53687FD09C1043656
:1014400008F440C0045680E0043098F510E0000F26
:10145000111F000F111F823079F0F801833011F154
:10146000813019F0E55CFE4F02C0E55BFE4F408223
:10147000518262827382E4C0055A1E4F20E030E040
:1014800040E752E4C301B2010E94373920E030E066
:1014900040E752E40E943739F80160837183828308
:1014A0009383CEC0E559FE4F77FA709477F8709425
:1014B000DECF8F5F0A3008F4CEC0843009F4CBC091
:1014C0000A50C2CFC301B2010E941A3A0E94583793
:1014D00010E00132110508F0BEC0F801EC5CFF4FCE
:1014E0000C94823A633008F4B9C060937B01A8C0C1
:1014F00060937E01A5C060937C0102C060937D0172
:101500000E9446319DC080919001662311F0846055
:1015100095C08B7F93C080919001662311F0806409
:101520008DC08F7B8BC080919001662311F0806805
:1015300001C08F778093900180E00E94FD2180C0E0
:1015400060937F017DC04092800150928101609242
:1015500082017092830174C040928401509285018F
:1015600060928601709287016BC080919001662322
:1015700011F0816001C08E7F809390010E94AC21A8
:101580005FC080919001662321F084FF6AC0806271
:1015900055C08F7D53C080919001662311F0886003
:1015A00001C0877F809390010E94032549C08091EC
:1015B0009001662311F0806141C08F7C3FC0609331
:1015C00091013EC040929201509293016092940129
:1015D0007092950135C040929601509297016092A9
:1015E0009801709299012CC070E070939B016093F8
:1015F0009A0126C040929C0150929D0160929E01EA
:1016000070929F011DC040928801509289016092A2
:101610008A0170928B0108C040928C0150928D011A
:1016200060928E0170928F010E94533409C08091A4
:101630009001662311F0826001C08D7F809390013C
:101640000E94992810C048E0F42E0DC0F82E0BC05F
:1016500034E0F32E08C023E0F22E05C096E0F92E08
:1016600002C08AE0F82E8F2D08C080912A01817275
:1016700011F089E079CB0E946F0B0E94362376CB64
:10168000002329F0893209F073CB0D7F71CB8132B1
:1016900008F46ECB8F3209F46BCB883289F08B3330
:1016A00089F01F3488F4212F30E01F5F9FE9980FE5
:1016B000F901E755F84F9A3108F48052808358CBEE
:1016C00002E056CB04E054CB01E052CB87E00E940D
:1016D0002A238FEF0E94E9280E94722333CA2F9297
:1016E0003F924F925F926F927F928F929F92AF92B2
:1016F000BF92CF92DF92EF92FF920F931F93CF93FF
:10170000DF93CDB7DEB7C355D1090FB6F894DEBF6E
:101710000FBECDBF82E4ECEEF1E0DF011D928A95B1
:10172000E9F78BE0E0EAF1E0ADEEB1E001900D9277
:101730008A95E1F78091A907843211F00C948D19F4
:1017400081E08093ED011092EE0183E08DA3B1E082
:10175000BEA7212C312C1BAE1AAE1CAA1EA21AA6A3
:10176000EE24E394F12C77247394EEE56E2EF1E6EB
:101770004F2EF3E05F2E8DA1E82FF0E0E755F84FF4
:10178000D080DD2009F49DC29FEB9D0D9A3110F0B1
:101790000C945C198F5F8DA3BE016F5D7F4FCE01EE
:1017A00085960E942B35882311F40C945E1989A02C
:1017B0009AA0ABA0BCA0C501B4010E941A3A0E9435
:1017C0005837162F70E080E090E00E9489379B0127
:1017D000AC01C501B4010E94DF3520E030E048ECE7
:1017E00052E40E9437390E94A4390E945837CB0135
:1017F000E7E4DE1629F0FDE4DF1609F4E8C087C14E
:10180000183209F4C3C020F5143168F4113108F01E
:101810008AC0143009F451C008F463C01A3009F4C6
:1018200044C00C946C191C3109F43FC050F41631BB
:1018300010F00C946C1925E1211B2093EF0106E0B8
:10184000AAC01E3191F1163209F44BC00C946C19E8
:101850001D3309F495C0A0F4153379F140F41B321F
:1018600009F478C0113309F475C00C946C191C3359
:1018700010F00C946C1916531093F30109E08BC00F
:101880001C3538F41A3508F053C0103581F10C942A
:101890006C191C3551F01F3510F00C946C19262D65
:1018A000211B2093EE0105E076C0009731F42AA5B4
:1018B00021110C94601931E03AA71093EC01212F0B
:1018C0002D7F2C3119F01C3509F062C0009721F0F2
:1018D0000A9711F00C946C19610F6093EC0100E011
:1018E0005FC04AA541110C946019A2E0AAA7109309
:1018F000ED01163209F04EC08431910559F08E3158
:10190000910541F08832910529F08233910511F05B
:101910000C946C196AE070E00E944C3A6657609330
:10192000ED0101E03DC011511093F10102E033C01F
:10193000892B29F41A551093F00103E031C06A3065
:10194000710511F00C946C191A3511F40C946C1982
:1019500004E026C0BAA5B1110C946019113331F41A
:101960001092F20108E0E3E0EAA71AC00A9711F02A
:101970000C946C197092F20108E0F3E0FAA710C021
:10198000892B11F00C946C190AE00AC007E003C01F
:1019900000E001C001E0892B19F087E10C94941953
:1019A000C701002E02C0880F991F0A94E2F72AADE2
:1019B0003BAD28233923232B19F085E10C9494198E
:1019C0002AAD3BAD282B392B3BAF2AAFD4CE892B88
:1019D00021F71B3040F4173058F5133070F01630F3
:1019E000C8F00C946C191237B9F1133709F474C0AC
:1019F0001E3111F00C946C190AC0112321F0113022
:101A000009F46FC004C083E08093F4016AC01093AE
:101A1000F40167C0143021F0153031F080E101C0CD
:101A200080E28093F60102C01092F6010CE05AC0E9
:101A3000193071F08091F5011A3021F0183021F041
:101A4000806803C08F7701C080648093F50102C075
:101A50001092F5010DE046C080E1EAE1F1E0DE011F
:101A6000519601900D928A95E1F74E0131E1830E76
:101A7000911CB401CE0101960E94702168ECC62E23
:101A800061E0D62ECE0101965C01D6016D917D916B
:101A90008D919D916D011C962D913D914D915C9183
:101AA0001F970E94E0359B01AC01F50160817181B7
:101AB000828193810E94DF35D5016D937D938D9353
:101AC0009D935D018A169B0601F7CE0101960E9447
:101AD000CA220E94262306C081EB92E00E941723AF
:101AE00001C00BE0C701002E02C0880F991F0A94A5
:101AF000E2F72AAD3BAD28233923232B09F05DCF34
:101B0000EAADFBADE82BF92BFBAFEAAF34CE8D2D60
:101B1000DD0C990BAA0BBB0BFC01E354F109E83176
:101B2000F10510F00C946C19EB5AFF4F0C94823AAB
:101B300080922A0290922B02A0922C02B0922D0247
:101B4000FEA1F860FEA30DE097C08092F80190928C
:101B5000F901A092FA01B092FB0100E08DC08092E1
:101B6000FC019092FD01A092FE01B092FF012CA910
:101B700021602CAB01E080C08092000290920102B3
:101B8000A0920202B09203023CA932603CAB02E098
:101B900073C08092040290920502A0920602B09255
:101BA00007024CA944604CAB03E066C010930C02E2
:101BB00004E062C0C501B4010E94513760930D0278
:101BC00070930E0280930F029093100205E054C0B0
:101BD0008092110290921202A0921302B09214020B
:101BE00006E04AC08092150290921602A092170257
:101BF000B092180207E040C08092190290921A0237
:101C0000A0921B02B0921C0208E036C020E030E037
:101C10004FE753E4C501B4010E94F738181614F4D5
:101C20000C94621910931D0209E026C080921E02D6
:101C300090921F02A0922002B09221028EA1816098
:101C40008EA30AE019C08092220290922302A092F1
:101C50002402B09225029EA192609EA30BE00CC0CC
:101C60008092260290922702A0922802B092290226
:101C7000AEA1A460AEA30CE06701002E02C0CC0CA4
:101C8000DD1C0A94E2F7C60182219321892B11F011
:101C90000C946419C201002E02C0959587950A9490
:101CA000E2F780FF0BC020E030E0A901C501B401DC
:101CB0000E94D53687FF02C00C9466192C283D2857
:101CC0005ACDBEA1BB2329F0EAA5E11102C0F2E082
:101CD000FAA725FE0FC080910D0290910E02A091EF
:101CE0000F02B091100281389649A849B10514F04D
:101CF0000C9468193EA5332329F020FC02C00C94F3
:101D0000721918C08091EE01813071F44AA54230F9
:101D1000E1F58091ED018035C1F18823B1F120FC1E
:101D200002C00C94721931C08091A10181112DC0A3
:101D300020FE1BC08091EF01813039F523E333E3AE
:101D40004BEC51E46091F8017091F9018091FA0136
:101D50009091FB010E9437396093F8017093F9016B
:101D60008093FA019093FB0110C08091AF01909194
:101D7000B001A091B101B091B2018093F8019093AC
:101D8000F901A093FA01B093FB0130FC10C08091DF
:101D9000AB019091AC01A091AD01B091AE018093E7
:101DA000190290931A02A0931B02B0931C02809117
:101DB000EC01843039F426FC03C08CE10C949419B6
:101DC000E89426F88091F1018823C9F0813059F414
:101DD00029968FAF299725961FAE259792E02396D7
:101DE0009FAF239717C029961FAE2997A2E025968B
:101DF000AFAF2597B1E02396BFAF23970BC0E2E0CA
:101E00002996EFAF2997F1E02596FFAF2597239606
:101E10001FAE23978091EF01813021F02AA5233056
:101E2000B9F52DC05CEEE52E51E0F52E00E010E096
:101E30003EA1C32ED12CC601002E02C095958795D8
:101E40000A94E2F780FF12C023E333E34BEC51E442
:101E5000D701D2966D917D918D919C91D5970E94DD
:101E60003739F70162AB73AB84AB95AB0F5F1F4F94
:101E7000F4E0EF0EF11C04301105E9F6CFCF8091AC
:101E8000F201813029F42EA1243011F00C946A194A
:101E900080E1E8ECF1E0DE01119601900D928A9567
:101EA000E1F78AAD9BAD91FD09C09091EC019AAB31
:101EB0009A30C9F09C3509F4B1C018C18091F30182
:101EC000873018F08DE10C9494199091A601891730
:101ED00061F3BE016F5F7F4F0E94C828882311F411
:101EE0000C948019E2CFAEA1A11103C08AE10C9439
:101EF0009419C10180759927892B09F45ECF6091EF
:101F000011027091120280911302909114020E94AA
:101F10001A3A0E9458376730A8F680910C02843133
:101F200041F0823011F00C946C1927FE02C00C9421
:101F30006C19BFEA2B22662319F0615068AF03C009
:101F4000E091F301E8AF6CEF71E088AD0E94C82822
:101F5000882311F40C948019B0900C024090E80191
:101F60005090E9016090EA017090EB010CEE11E0F5
:101F700040EAC42E41E0D42EE12CF12CFEA18F2E9C
:101F8000912CC4010E2C02C0959587950A94E2F716
:101F900080FF36C024E1B2122AC0D601D8962D9116
:101FA0003D914D915C91DB9758966D917D918D910E
:101FB0009C915B970E94DF35F80122A933A944A9BF
:101FC00055A90E94DF35D80150966D937D938D936E
:101FD0009C935397B2E0EB1213C0A30192010E94AD
:101FE000DF35F801608B718B828B938B09C0F80110
:101FF00082A993A9A4A9B5A9808B918BA28BB38B3D
:10200000FFEFEF1AFF0A0C5F1F4F24E0C20ED11C36
:1020100034E0E316F10409F0B4CF37C14EA14423F4
:1020200009F464CF4090E8015090E9016090EA0122
:102030007090EB0120EA822E21E0922E8E010F5F3C
:102040001F4F3CEEE32E31E0F32EC12CD12CA42EF9
:10205000B12CC5010C2C02C0959587950A94E2F726
:1020600080FF29C0D8012D913D914D915C91F401E3
:10207000608D718D828D938D0E94DF35D701D29650
:102080002D913D914D915C91D5970E94DF35F701DF
:1020900062AB73AB84AB95ABF2E0CF1216C0A30179
:1020A00092010E94DF35D701D2966D937D938D9377
:1020B0009C93D5970AC0F40180AD91ADA2ADB3ADAC
:1020C000F70182AB93ABA4ABB5ABFFEFCF1ADF0A3E
:1020D00024E0820E911C0C5F1F4F34E0E30EF11CD4
:1020E00044E0C416D10409F0B4CFCEC08AA5833031
:1020F00071F49AA99E3109F48FC0953309F4BEC0DA
:102100009C3109F0C1C06CEF71E086E088C0AEA1DF
:10211000AA2379F3B091F001B8AF4090E801509054
:10212000E9016090EA017090EB0190EAC92E91E01C
:10213000D92E0CEE11E0FE0131965F01E12CF12C5D
:102140008A2E912CC4010E2C02C0959587950A9475
:10215000E2F780FD0BC0F601808D918DA28DB38DCD
:10216000F80182AB93ABA4ABB5AB45C0FAA9F5338C
:1021700009F441C028AD21112BC0D601D8962D916C
:102180003D914D915C91DB97F50160817181828178
:1021900093810E94E035D801D2962D913D914D91C9
:1021A0005C91D5970E94E035F80162AB73AB84ABCC
:1021B00095ABF2E0EF121FC0A30192010E94E0353F
:1021C000D801D2966D937D938D939C93D59713C030
:1021D000F601208D318D428D538DD801D2966D91AF
:1021E0007D918D919C91D5970E94E035F80162AB6D
:1021F00073AB84AB95ABFFEFEF1AFF0A24E0C20E7E
:10220000D11C0C5F1F4F34E0A30EB11C44E0E41658
:10221000F10409F097CF6DCF6CEF71E087E00E9479
:10222000C828882311F40C9480198EA1811103C051
:1022300018AE1AA62AC0A0EAB1E0ECEEF1E080E008
:1022400090E04EA1242F30E0A901082E02C0559540
:1022500047950A94E2F740FD0AC058964D915D916A
:102260006D917C915B97408B518B628B738B019648
:10227000149634968430910539F706C08091ED01AB
:10228000823010F00C946E1918AE8091ED018AAB7B
:10229000803529F49EA191110C94701983C2AAA5CE
:1022A000A23009F07FC2BAA9B11104C0EEA1E111B8
:1022B00079C22BC020E030E0A9016091F801709153
:1022C000F9018091FA019091FB010E94D536882393
:1022D00011F40C947219FAA9FC3809F44DC240F4B7
:1022E000F230A9F0F330B1F0F13009F05BC20AC06E
:1022F0002AA92E3809F440C208F43BC22F3809F449
:1023000038C250C23EA131114DC21AA64BC24EA5D1
:1023100044604EA78EA1882309F4E8CD23969FAD93
:102320002397092F10E02596BFAD2597AB2FB0E07E
:10233000BFAFAEAF81E090E07C0123960FAC239756
:1023400002C0EE0CFF1C0A94E2F725960FAC25970D
:1023500002C0880F991F0A94E2F7E82AF92AEEA131
:102360008E2F90E08E219F21892B09F4BDC7F801A3
:10237000EE0FFF1FEE0FFF1FE451FE4FD801AA0F13
:10238000BB1FAA0FBB1FA854BE4F2D913D914D916D
:102390005C9162A973A984A995A90E94DF352B01DC
:1023A0003C01EEADFFADEE0FFF1FEE0FFF1FE4513E
:1023B000FE4FAEADBFADAA0FBB1FAA0FBB1FA854E7
:1023C000BE4F2D913D914D915C9162A973A984A955
:1023D00095A90E94DF354B015C016101F0E8CF2235
:1023E000DD2427FEF3C0E89427F840E150E06EE1D9
:1023F00072E088EB91E00E94A23A892B11F481E20D
:1024000093C78091EF018130B1F423E333E34BECC8
:1024100051E460911502709116028091170290911B
:1024200018020E9437396093150270931602809348
:102430001702909318028091150290911602A091B4
:102440001702B09118028CAB9DABAEABBFABA30132
:102450009201C301B2010E94373960966CAF7DAF23
:102460008EAF9FAF6097A5019401C501B4010E9492
:10247000373964966CAF7DAF8EAF9FAF649720E025
:1024800030E040E850E46CA97DA98EA99FA90E9484
:1024900037392CA93DA94EA95FA90E94373960960A
:1024A0002CAD3DAD4EAD5FAD60970E94DF356496BB
:1024B0002CAD3DAD4EAD5FAD64970E94DF356B0135
:1024C0007C0120E030E0A9010E94D53687FD0EC7CF
:1024D000C701B6010E94D6396B017C0164962CAD10
:1024E0003DAD4EAD5FAD649760966CAD7DAD8EAD8C
:1024F0009FAD60970E94E0350E94D6399B01AC01E8
:10250000C701B60190580E94DF366B017C019AA981
:10251000933021F4F7FAF094F7F8F09420E030E0EB
:10252000A9016CA97DA98EA99FA90E94D53687FF14
:1025300011C0F7FAF094F7F8F0948CA99DA9AEA910
:10254000BFA9B0588093150290931602A09317026A
:10255000B0931802000F111F000F111F04501E4FDF
:10256000A7019601C501B4010E9437399B01AC0156
:10257000C301B2010E94DF3520E030E040E05FE3BC
:102580000E943739D8016D937D938D939C93139757
:102590000EAD1FAD000F111F000F111F04501E4F75
:1025A000A7019601C301B2010E943739A501940128
:1025B0000E94E03520E030E040E05FE30E943739E0
:1025C000F8016083718382839383ECC03CA9232F3D
:1025D00030E03DAB2CABE222F322EF2809F488C6B1
:1025E00041EF24228091EF01813009F47AC0F80193
:1025F000EE0FFF1FEE0FFF1FE450FE4FC080D18093
:10260000E280F380A7019601C301B2010E94DF3589
:102610002B013C01EEADFFADEE0FFF1FEE0FFF1FD4
:10262000E450FE4F80819181A281B3818CAB9DAB40
:10263000AEABBFAB9C01AD01C501B4010E94DF355B
:102640004B015C01A3019201C301B2010E94373921
:102650002B013C01A5019401C501B4010E94373949
:102660009B01AC01C301B2010E94E0350E94D63942
:102670004B015C01A7019601C701B6010E943739E1
:102680006B017C012CA93DA94EA95FA9CA01B90122
:102690000E9437399B01AC01C701B6010E94E035A9
:1026A0000E94D6396B017C0160931502709316026B
:1026B00080931702909318029B01AC01C501B401ED
:1026C0000E94DF354B015C01E894B7F82AE037ED52
:1026D00043EA5BE3C501B4010E94F738181664F1C0
:1026E00061C09CEEE92E91E0F92E8CA99DA90C2CDD
:1026F00002C0959587950A94E2F780FF12C023E304
:1027000033E34BEC51E4D70150966D917D918D915F
:102710009C9153970E943739F701608B718B828BA4
:10272000938BFFEFCF1ADF0A24E0E20EF11C34E0B6
:10273000C316D104D1F65BCF20E030E040E05FE388
:10274000C501B4010E94F73818160CF458CE2FE6D4
:1027500032E143E85AE3C701B6010E9437399B01D1
:10276000AC01C501B4010E94F73818160CF447CE2D
:1027700019C04EA540614EA78AA98E58823018F420
:102780008EA588608EA79EA1992309F4AFCB40E166
:1027900050E06EE172E088EB91E00E94A23A892B52
:1027A00009F42DCE2EA52170AEA5C101A0FF02C057
:1027B0008E7D02C08E7D9C7FBAA5B111937C892B42
:1027C00009F098C58E010F5E1F4F89E0F801119244
:1027D0008A95E9F7222309F44BC08AAD9BAD867B2D
:1027E000892B09F089C58091EC01853311F08111A5
:1027F00083C58091AB019091AC01A091AD01B091E6
:10280000AE018D8B9E8BAF8BB88F9091A90180917B
:10281000A801892B4091F8015091F9016091FA01CA
:102820007091FB01498B5A8B6B8B7C8B8460898FF9
:102830008091900185FF06C08EE192E00E943521D3
:1028400081115CC5B8018EE192E00E94290280915D
:102850002A01811157C50E948D26892B09F452C582
:1028600080E280932A010E9470290E94991C4AC527
:1028700080919001F090A90181FF26C08AA9815022
:10288000833018F0FEA5F064FEA72EA1222339F0B4
:102890003AA5323021F44EA540684EA715C080E11C
:1028A000F81212C08091A00181509EA590748330CF
:1028B00030F4992349F09EA590629EA705C091111E
:1028C00003C0AEA5A062AEA780910D0290910E024A
:1028D000A0910F02B09110028093B4019093B501C2
:1028E000A093B601B093B7018091EE018093A1014E
:1028F000882311F088E0898F8091F8019091F90187
:10290000A091FA01B091FB018093AF019093B001C7
:10291000A093B101B093B201898B9A8BAB8BBC8B26
:102920008090190290901A02A0901B02B0901C0295
:10293000A50194016091AB017091AC018091AD0152
:102940009091AE010E94D536BEA5B074EB2E8111D8
:1029500003C0EEA5E5FF20C0FF2071F0FEA5F7FD46
:102960000BC0EE2021F040E050E0BA0102C0B501FA
:10297000A4018F2D0E9435348091190290911A0282
:10298000A0911B02B0911C028093AB019093AC010B
:10299000A093AD01B093AE01E1100CC08091AB01EA
:1029A0009091AC01A091AD01B091AE018D8B9E8B49
:1029B000AF8BB88F80911D028093B3018091F60197
:1029C0009091A901981751F04D895E896F89788D92
:1029D0000E9435348091F6018093A901998D8091F0
:1029E000A901892B898FF090F5018091A8018F159D
:1029F00069F080912A01823029F00E9424348F2DC1
:102A00000E9427328091F5018093A801998D8091D1
:102A1000A801892B898F8091EC01843099F4C090B2
:102A20001102D0901202E0901302F09014028091F3
:102A30002A01823039F00E94243440E0C701B601F7
:102A40000E94DA258091F1018093A4018091EF0129
:102A50008093A2012AA5233071F58091F201809321
:102A6000A501811108C0109226021092270210922F
:102A7000280210922902C0902602D0902702E090EE
:102A80002802F0902902A70196016091E801709157
:102A9000E9018091EA019091EB010E94D5368823EB
:102AA00051F0C092E801D092E901E092EA01F0927F
:102AB000EB010E94AC218091F3019091A60198173F
:102AC00069F08093A60180E1FE013196A8ECB1E0A7
:102AD00001900D928A95E1F70E94AC218091F0015E
:102AE0008093A3018091EC018632F1F138F48C31AE
:102AF00009F18E31F9F08A3069F04FC08C35D1F18F
:102B0000863609F441C0883209F047C068EB71E0AD
:102B100087E02DC06CEF71E088AD0E94B4288091F1
:102B2000A60138AD381339C080E1ECEFF1E0A8EC34
:102B3000B1E025C0898D8160898F4AA5442329F0A1
:102B4000B8018EE192E00E942902B8018CEF91E079
:102B50000E94290280E1ECEFF1E0A8EBB1E00190E6
:102B60000D928A95E1F719C068EB71E086E00E944A
:102B7000B42813C080E1EEE1F2E0A8EDB1E00190ED
:102B80000D928A95E1F707C080E1E8EDF1E0DF0101
:102B90001D928A95E9F70E94AC218091ED01809306
:102BA000A001803509F43AC3BAA5B23009F036C3A2
:102BB000813021F4BE016F5E7F4F06C0811109C0D4
:102BC000898D8160898FB8018EE192E00E9429028F
:102BD0001CC38250823008F0B1C2809115029091DE
:102BE0001602A0911702B09118028AA79BA7ACA762
:102BF000BDA72396AFAD239794E0A99F7001112440
:102C0000F701E854FE4FFBABEAAB970124503E4F6F
:102C100039AF28AFD9014D905D906D907C902081A7
:102C2000318142815381C301B2010E94E0356AAF14
:102C30007BAF8CAF9DAF2596EFAD2597B4E0EB9FB2
:102C400080011124980128543E4F3DAB2CABC801A4
:102C500084509E4F24969FAF8EAF2497DC018D90B9
:102C60009D90AD90BC90F9012081318142815381CA
:102C7000C501B4010E94E03528966CAF7DAF8EAFE0
:102C80009FAF289777FA709477F87094D501C401B4
:102C9000B0588EA39FA3A8A7B9A7F701E25EFD4F86
:102CA0002AAD3BAD4CAD5DAD608171818281938178
:102CB0000E94DF356B017C01F801E25EFD4F289632
:102CC0002CAD3DAD4EAD5FAD2897608171818281A5
:102CD00093810E94DF354B015C01A7019601C3017E
:102CE000B2010E94373922966CAF7DAF8EAF9FAF95
:102CF0002297A50194016EA17FA188A599A50E94A4
:102D000037399B01AC0122966CAD7DAD8EAD9FAD88
:102D100022970E94E03522966CAF7DAF8EAF9FAFB9
:102D20002297A5019401C301B2010E9437394B01DA
:102D30005C01A70196016EA17FA188A599A50E94BB
:102D400037399B01AC01C501B4010E94DF352296E1
:102D50002CAD3DAD4EAD5FAD22970E945F366B014D
:102D60007C019EA592FF13C02DEB37E346E055EBA7
:102D7000C701B6010E94F73887FD1DC02BED3FE06B
:102D800049EC50E4C701B6010E94DF3512C02DEBBB
:102D900037E346E055E3C701B6010E94D536181661
:102DA00054F02BED3FE049EC50E4C701B6010E941E
:102DB000E0356B017C018090840190908501A090AA
:102DC0008601B09087012AA53BA54CA55DA5CA0147
:102DD000B9010E94E035A50194010E94DF35A501EB
:102DE00094010E9437390E94D6394B015C0120E0E2
:102DF00030E040E05FE3C701B6010E9437392AA501
:102E00003BA54CA55DA50E9437399F77A50194018C
:102E10000E94DF360E94C4370E9458377FAF6EAFE2
:102E2000DB01AB2B09F4C6CE198D4B01A12CB12CC3
:102E300013FF12C0C501B4010E9487379B01AC018A
:102E400069897A898B899C890E943739698B7A8B49
:102E50008B8B9C8B177F198FC501B4010E9487371C
:102E60004B015C019B01AC01C701B6010E94DF363A
:102E70006EA77FA788AB99AB2996EFAD2997B4E0F1
:102E8000EB9FC00111248C0108541E4FFC01E25E2F
:102E9000FD4FD8012D913D914D915C9160817181E3
:102EA000828193810E94DF35A50194010E94DF3663
:102EB00064966CAF7DAF8EAF9FAF64972EA53FA594
:102EC00048A959A9CA01B9010E9437399B01AC012F
:102ED00060E070E080E090E40E94DF356B017C01EF
:102EE0002BEA3AEA4AE25EE36EA57FA588A999A992
:102EF0000E9437394B015C0120E030E040E850E4AB
:102F0000C701B6010E94E0359B01AC01C501B401C7
:102F10000E9437392C966CAF7DAF8EAF9FAF2C9748
:102F200020E030E040E05FE3C701B6010E9437399E
:102F300060966CAF7DAF8EAF9FAF60971AA62224CC
:102F40002394312CEEADFFADE215F30509F432CE3A
:102F5000BAA5BC3008F048C02EA13FA148A559A58C
:102F600060966CAD7DAD8EAD9FAD60970E94373998
:102F70006B017C01A30192012C966CAD7DAD8EADF1
:102F80009FAD2C970E943739A70196010E94E0352A
:102F90007B016C01A301920160966CAD7DAD8EAD9D
:102FA0009FAD60970E9437394B015C012EA13FA174
:102FB00048A559A52C966CAD7DAD8EAD9FAD2C97D7
:102FC0000E9437399B01AC01C501B4010E94DF3575
:102FD0002B013C01EAA5EF5FEAA7470156018EA24B
:102FE0009FA2A8A6B9A667C0B10180E090E00E94A8
:102FF00087372EA53FA548A959A90E9437396B01EB
:103000007C010E94DA366EA37FA388A799A7C70127
:10301000B6010E94C8394B015C01A8ADB9ADCD9095
:10302000DD90ED90FC90F7FAF094F7F8F094249688
:10303000AEADBFAD24978D919D910D90BC91A02D0B
:103040008AA79BA7ACA7BDA7A70196016EA17FA1E8
:1030500088A599A50E9437392B013C012AA53BA5DB
:103060004CA55DA5C501B4010E9437399B01AC0197
:10307000C301B2010E94E0352B013C01A70196017A
:10308000C501B4010E9437396B017C012AA53BA51B
:103090004CA55DA56EA17FA188A599A50E94373991
:1030A0009B01AC01C701B6010E94DF356EA37FA36F
:1030B00088A799A71AA6A30192016AAD7BAD8CAD32
:1030C0009DAD0E94E035EAA9FBA9608371838283EC
:1030D00093832EA13FA148A559A528966CAD7DAD3F
:1030E0008EAD9FAD28970E94E035ACA9BDA96D9328
:1030F0007D938D939C93139764962CAD3DAD4EAD0F
:103100005FAD6497F80160817181828193810E9433
:10311000E035D8016D937D938D939C931397BE01F9
:103120006F5E7F4F88EB91E00E94290280912B0116
:1031300081116BC0BFEF2B1A3B0A04CF898D8460CD
:10314000898F80912A01823009F45FC00E94243463
:1031500080912B01811162C0FEA5F071FF2E1092AB
:103160002F012EA523FB882780F90E94FD2186B11F
:10317000807490910801891749F084E00E941C2115
:103180000E94123380E00E94FD2148C0B8018EE108
:1031900092E00E94290281E08093190182E00E945E
:1031A0002C210E94123380912B01811137C0809114
:1031B0002A018111F6CF80911901813081F4FF201D
:1031C00051F080E1EAE1F1E0A9E0B1E001900D9277
:1031D0008A95E1F707C085E00E941C2103C081E0C9
:1031E00080932F011092190180E00E94FD210E941E
:1031F00012330E9487310E949D260E9409260E9458
:10320000892480912F0181118CC080E1EEE1F2E0F0
:10321000A8EBB1E001900D928A95E1F78091F4015D
:103220008093A701882309F47FC00E9424348091F1
:10323000A70190912A01833041F49230D1F188E0C6
:103240000E942C210E94123334C081E08093A0019F
:103250001092A4011092A3011092A1011092A60154
:103260001092A9011092A80184E680933101809305
:10327000320180933301923091F068EC71E080E08C
:103280000E94C8288823E1F10E94AC2140E050E070
:10329000BA0180E00E94EE3280E00E9427328BEA81
:1032A00092E00E94172382E492E00E9417230E947A
:1032B00084241092A7012FC081E036C082E034C080
:1032C00088E132C086E230C089E12EC084E02CC0A3
:1032D0008BE12AC085E228C084E126C08EE124C0AB
:1032E0008FE122C086E120C080E21EC082E21CC0C5
:1032F00083E21AC084E218C080E116C08FE014C0D7
:1033000087E012C080E1EEE1F2E0A8EBB1E00190CD
:103310000D928A95E1F780E007C01DA21EA60C94CD
:10332000A90B0E947F347ACFCD5ADF4F0FB6F894A5
:10333000DEBF0FBECDBFDF91CF911F910F91FF90E8
:10334000EF90DF90CF90BF90AF909F908F907F9045
:103350006F905F904F903F902F90089580916F00F5
:103360008D7F80936F0080918100887F8160809342
:1033700081001092BE0580917E0190912A018F3FBD
:1033800039F42091B905211103C0903881F402C0AD
:10339000943069F090E0009741F0EFE9FFE0319759
:1033A000F1F700C000000197F6CF81E001C080E096
:1033B0009091900192FF02C091E08927882311F03B
:1033C0005F9A08955F9808951F920F920FB60F921B
:1033D00011242F933F934F935F936F937F938F931A
:1033E0009F93AF93BF93EF93FF938091BE0581119D
:1033F0008FC285B19091D2059771887E892B85B94E
:103400008BB19091D1059C778378892B8BB9809172
:10341000D00586BD82E085BD81E08093BE057894AD
:103420008091E8059091E905892B09F0D7C080913A
:10343000EA0590911506981709F4BCC0E091EA05D9
:103440002E2F30E087E0E89FF0011124E551FA4F7C
:10345000F093E905E093E8058281938190938900D8
:1034600080938800808191819093E4058093E305A7
:10347000E4818091E5058E17A1F1E093E50586E1F1
:10348000E89FF0011124EA5EF94FF093E705E0931D
:10349000E60580899189A289B389B695A795979504
:1034A00087958093CB059093CC05A093CD05B093E1
:1034B000CE058093C7059093C805A093C905B09326
:1034C000CA058093C3059093C405A093C505B09326
:1034D000C6058093BF059093C005A093C105B09326
:1034E000C205E091E605F091E70594898091BD055C
:1034F00089278093D20587E0829FD001839FB00DFA
:103500001124A551BA4F15968C9115974081518180
:1035100062817381082E04C076956795579547950B
:103520000A94D2F74093D3055093D4056093D50500
:103530007093D6054481558166817781082E04C039
:1035400076956795579547950A94D2F74093D70596
:103550005093D8056093D9057093DA05408551855D
:1035600062857385082E04C07695679557954795B3
:103570000A94D2F74093DB055093DC056093DD0598
:103580007093DE05448555856685778504C07695FC
:103590006795579547958A95D2F74093DF055093E5
:1035A000E0056093E1057093E20516968C910E9408
:1035B000E03214C00E94AE19E091E605F091E705F3
:1035C0008589882339F01092B3008091B0008F77FD
:1035D0008093B00084E00E942C219AC1809119014F
:1035E0008130B1F486B1807490910801891781F01F
:1035F0001092190180E1EAE1F1E0A9E0B1E0019067
:103600000D928A95E1F78091B80580648093B805A2
:103610001092D1054091BF055091C0056091C10540
:103620007091C2058091D3059091D405A091D505E4
:10363000B091D605840F951FA61FB71F8093BF05B5
:103640009093C005A093C105B093C205E091E60533
:10365000F091E705408951896289738948175907B4
:103660006A077B0768F524E02093D10540895189DA
:1036700062897389841B950BA60BB70B8093BF05DA
:103680009093C005A093C105B093C2052489809191
:103690001A0190911B01A0911C01B0911D0120FF06
:1036A00004C00197A109B10903C00196A11DB11D74
:1036B00080931A0190931B01A0931C01B0931D01EC
:1036C0004091C3055091C4056091C5057091C60530
:1036D0008091D7059091D805A091D905B091DA05D0
:1036E000840F951FA61FB71F8093C3059093C40531
:1036F000A093C505B093C605408951896289738935
:10370000481759076A077B0778F52091D10528618A
:103710002093D1054089518962897389841B950B57
:10372000A60BB70B8093C3059093C405A093C50562
:10373000B093C605248980911E0190911F01A0912C
:103740002001B091210121FF04C00197A109B10915
:1037500003C00196A11DB11D80931E0190931F010E
:10376000A0932001B09321014091C7055091C80555
:103770006091C9057091CA058091DB059091DC05C7
:10378000A091DD05B091DE05840F951FA61FB71F20
:103790008093C7059093C805A093C905B093CA0547
:1037A0004089518962897389481759076A077B07DD
:1037B00078F52091D10520622093D1054089518967
:1037C00062897389841B950BA60BB70B8093C70581
:1037D0009093C805A093C905B093CA052489809128
:1037E000220190912301A0912401B091250122FF93
:1037F00004C00197A109B10903C00196A11DB11D23
:103800008093220190932301A0932401B09325017A
:103810004091CB055091CC056091CD057091CE05BE
:103820008091DF059091E005A091E105B091E2055E
:10383000840F951FA61FB71F8093CB059093CC05CF
:10384000A093CD05B093CE054089518962897389D3
:10385000481759076A077B0778F52091D10520643E
:103860002093D1054089518962897389841B950B06
:10387000A60BB70B8093CB059093CC05A093CD05F9
:10388000B093CE0524898091260190912701A091C3
:103890002801B091290124FF04C00197A109B109B1
:1038A00003C00196A11DB11D8093260190932701AD
:1038B000A0932801B093290180912A01843039F422
:1038C0009091D1058091300189238093D105809119
:1038D000E3059091E40501979093E4058093E30557
:1038E000892B69F41092E9051092E8058091EA05A8
:1038F0008F5F8093EA05863011F41092EA0590916B
:10390000D1058091BC0589278093D1051092BE0511
:10391000FF91EF91BF91AF919F918F917F916F91A7
:103920005F914F913F912F910F900FBE0F901F907D
:1039300018958091900182FF02C05F9A01C05F9844
:103940008091BC058093D10580917B01880F8450C4
:1039500081958093D00580916F00826080936F0085
:1039600008953F924F925F926F927F928F929F92B3
:10397000AF92BF92CF92DF92EF92FF920F931F937D
:10398000CF93DF93CDB7DEB7E0970FB6F894DEBFE5
:103990000FBECDBF1091B9051123C9F181E080930D
:1039A0002A01123029F483E193E00E94172307C013
:1039B0008CE093E00E941723812F0E94F1220E9445
:1039C000262385EF91E0019739F0EFE9FFE0319789
:1039D000F1F700C00000F7CF1150123030F08FB770
:1039E000F8941092B9058FBF12C08BEA92E00E9442
:1039F000172389E992E00E9417230E94842480E122
:103A00000E9422218091B80584FFFCCFE8CF10915D
:103A1000B805112309F4B4C214FF04C081E08093F7
:103A20002B01D3C310FFB8C180E1EAE1F1E0DE0170
:103A3000919601900D928A95E1F7BE016F5D7F4FDF
:103A4000CE0141960E9470218CE30E940B3280913E
:103A50002A018830E1F058F4813099F1A8F08230E1
:103A600099F1843009F043C081E893E03EC0803290
:103A700029F118F4803171F03AC0803441F1803876
:103A8000B1F589E693E031C084E993E02EC080E986
:103A900093E02BC080912C0187FD10C08AE893E051
:103AA0000E94172380912C0180FF06C080E31AC07A
:103AB00082FF17C085FFFACF81E314C086E893E048
:103AC00014C08BE793E011C085E793E00EC08FE64A
:103AD00093E00E94172380912C0183FFE9CF83E3B9
:103AE00001C082E30E940B3202C00E941723809122
:103AF0007F01F82FF170BF2E80FF07C08091360143
:103B0000882319F082E693E053C04090E80150907A
:103B1000E9016090EA017090EB0148EC842E41E0ED
:103B2000942E9E012F5F3F4F7901CE0141966C018B
:103B300001E0F40161917191819191914F0124858E
:103B40003585468557850E94E035F701608371838E
:103B500082839383033099F4A30192010E94E0359C
:103B6000F7016083718382839383BB2051F094E0DB
:103B7000E90EF11C0F5FE4E0CE0ED11CDACFB110DC
:103B800011C0F7012081318142815381F6016081AA
:103B90007181828193810E94DF35F6016083718398
:103BA00082839383043019F7B110ACCF8BE593E097
:103BB0000E941723CE0141960E94CA2280917F0164
:103BC00081FF1FC086E593E00E9417239091930523
:103BD00080919205981710F0815F01C08150891B78
:103BE0000E94F1228CE20E940B3280912F02909170
:103BF0002E02981710F0805801C08150891B0E9436
:103C0000F12281E593E00E94172380912A018C77AD
:103C100049F060919B0670919C0680919D06909161
:103C20009E0603C060E070E0CB010E94AC228CE2F3
:103C30000E940B32609137017091380180913901F7
:103C400090913A0140E00E940F220E94E224F82E57
:103C50000E94B121082F86B1982F9074809108019D
:103C6000E92EE8268F2D802B8E2959F18CE493E0E4
:103C70000E941723EE2019F080E50E940B32FF20EE
:103C800079F0F0FE03C088E50E940B32F1FE03C01C
:103C900089E50E940B32F2FE03C08AE50E940B32D6
:103CA000002379F000FF03C082E50E940B3201FF80
:103CB00003C088E40E940B3202FF03C083E50E9428
:103CC0000B3280913601882321F081508093360198
:103CD00018C080912A018C7711F08DE101C089E034
:103CE0008093360180913501811103C081E080937A
:103CF000350186E493E00E941723CE0101960E94CD
:103D0000CA2280913501882321F0815080933501AA
:103D10003BC080912A018C7711F083E101C089E0DA
:103D20008093350181E493E00E9417238091310153
:103D30000E94F1228CE20E940B32809132010E949B
:103D4000F1228CE20E940B32809133010E94F12219
:103D500008B108700E943B32F82E011102C088237E
:103D600099F08DE393E00E941723002319F083E577
:103D70000E940B32F6FE03C086E40E940B32F7FE6F
:103D800003C08DE40E940B328EE30E940B320E942E
:103D9000262381E00E942221812F887E09F467C0BA
:103DA00080912A01982F937009F050C08872A1F079
:103DB00080912C01807C81F40E94223182E08093EA
:103DC0002E0180912A01803239F417FDFCC18091C7
:103DD0002C01806880932C0180912A01811103C0FD
:103DE00091E090932C0116FF07C085FD05C09091CE
:103DF0002C01906490932C0113FF05C0807E19F470
:103E000080E180932A0115FF21C08BEA92E00E9495
:103E1000172387E592E00E9417230E948424809153
:103E20002C0187FD0EC090912A01903439F483FF54
:103E3000C6C1837E826080932C01C1C1903809F095
:103E4000BEC180912C01806280932C0117FF0CC0B1
:103E500080912A01813029F480912C018560809322
:103E60002C0180E880932A0188EE0E94222111FF14
:103E700044C0812F8876F1F580912A01803471F455
:103E800080912C0185FD0AC084FF03C010922A0195
:103E900005C082FF03C0886080932C0180912A01B5
:103EA000882381F084FF26C090912C0190FF22C0CE
:103EB000803141F480913401882321F0886080931F
:103EC000340118C010922E010E948D26892B71F0AA
:103ED00080912C0186FD0AC010922C0188E080930D
:103EE0002A010E9470290E94991C04C010922C0182
:103EF00010922A0182E00E94222112FF41C080918B
:103F00002A01807D90912C018823D9F080912D0188
:103F1000811117C097FD15C00E9422318091920532
:103F2000809330020E94AE2680912E0181FF05C051
:103F300090912C01916090932C01897F80932E01A8
:103F40001CC097FF0AC010922E010E949D260E945D
:103F500087310E947F340E94092680912C0185FFC1
:103F600008C08F77816080932C0180E480932A01C0
:103F700004C010922C0110922A0184E00E94222198
:103F80009091BA05992309F4ABC08FB7F8941092B9
:103F9000BA058FBF4091310190FD02C0842F01C04E
:103FA00084E691FD865F92FD8A5093FD8F5F94FDBC
:103FB0008150893C08F088EC8A3008F48AE030911E
:103FC000320195FD02C0232F01C024E696FD22E3B5
:103FD00097FD29E1481303C0231709F481C080939A
:103FE00031012093320110923501109192053090E9
:103FF000930589E9D82E96E7E92E26E9F22E0EE7F9
:1040000036E3432E131509F457C0812E912C489C9A
:10401000C001499C900D11249C012E5C3D4F59011B
:10402000C9010E941A26562E672E782EC92E2D2DD4
:104030003E2D4F2D502F0E94F73818164CF42D2D81
:104040003E2D4F2D502F6D2D7E2D8F2D902F08C082
:10405000252D362D472D5C2D652D762D872D9C2DFC
:104060000E943739F501628F738F848F958F489C3A
:10407000C001499C900D11249C012E5C3D4F79019B
:10408000F90186A097A0A0A4B1A4A5019401628D16
:10409000738D848D958D0E94F73818162CF4F701D6
:1040A000828E938EA48EB58E1F5F103109F410E0BE
:1040B000D52C73010C2DA6CF8D2D9E2DAF2DB02F9D
:1040C0008093B4059093B505A093B605B093B7055A
:1040D0000E94223180919205809330020E94AE2688
:1040E0000091BB05002309F463C08FB7F8941092C8
:1040F000BB058FBF9091330100FD02C0892F01C025
:1041000084E601FD865F02FD8A5003FD8F5F04FD9A
:104110008150893C08F088EC8A3008F48AE09817CE
:10412000D1F08093330180912A0181110DC040911B
:10413000AB015091AC016091AD017091AE018091E5
:10414000A9010E94EE3205C080912E018860809303
:104150002E011092350180912A0105FF0DC080319A
:1041600059F490913401911102C092E003C090FF84
:1041700003C0946090933401902F907CC9F0882301
:1041800011F08873A9F01091A80107FF05C017FF6F
:1041900002C01F7701C0106806FF05C016FF02C0ED
:1041A0001F7B01C01064812F0E9427321093A80149
:1041B00080912A018C7F49F00E94702906C080E41A
:1041C00080932A013ECE80E20ECEE0960FB6F894A0
:1041D000DEBF0FBECDBFDF91CF911F910F91FF903A
:1041E000EF90DF90CF90BF90AF909F908F907F9097
:1041F0006F905F904F903F900895CF93DF93C9EAFF
:10420000D7E08991882319F00E940B32FACFDF9111
:10421000CF9108959FB7F8942091BB05822B80938E
:10422000BB059FBF08959FB7F8942091BA05822BD4
:104230008093BA059FBF08959FB7F8948093B905FE
:104240009FBF08952FB7F8949091B8058095892362
:104250008093B8052FBF08959FB7F8942091B805B3
:10426000822B8093B8059FBF0895AF92BF92CF92E3
:10427000DF92EF92FF920F931F93CF93DF93EC01A6
:104280000BE611E05C018CE0A80EB11CC990D9903E
:10429000E990F99020E030E0A901C701B6010E9441
:1042A000F73818168CF0F801219131914191519114
:1042B0008F01C701B6010E94D53687FD05C0CA151A
:1042C000DB0521F780E001C081E0DF91CF911F91F4
:1042D0000F91FF90EF90DF90CF90BF90AF90089537
:1042E0008F929F92AF92BF92CF92DF92EF92FF9206
:1042F0000F931F93CF93DF93EB012BE3E22E21E08B
:10430000F22E8C016B0180E1C80ED11C699179916C
:1043100089919991F70181909190A190B1907F013D
:104320000E948937A50194010E94DF36F80161934C
:104330007193819391938F01CC15DD0539F7DF914E
:10434000CF911F910F91FF90EF90DF90CF90BF9092
:10435000AF909F908F9008950E9424341092360160
:10436000089596B19095892F877059F091FF02C0FA
:1043700082E001C080E090FD816092FF03C0846014
:10438000089580E008951F920F920FB60F921124A6
:104390002F933F934F935F936F937F938F939F934D
:1043A000AF93BF93CF93EF93FF930E94B121C82F98
:1043B000882389F080FD0E948534C2FF05C080916A
:1043C000B80582608093B805C1FF05C08091B8052B
:1043D00088608093B805FF91EF91CF91BF91AF9125
:1043E0009F918F917F916F915F914F913F912F910D
:1043F0000F900FBE0F901F9018951092080190918A
:10440000900197FD03C090E490930801882331F058
:104410009091080180E489278093080108958F9284
:104420009F92AF92BF92CF92DF92EF92FF920F9343
:104430001F93CF93DF93CDB7DEB72D970FB6F894C8
:10444000DEBF0FBECDBF6B017C01042F20E030E04A
:10445000A9010E94D53687FF07C08DE20E940B326A
:10446000F7FAF094F7F8F094102F123060F020E093
:1044700030E048EC52E4C701B6010E9437396B01C5
:104480007C011250F2CF00FF0AC020E030E040E291
:1044900051E4C701B6010E9437396B017C0120E06D
:1044A00030E040E05FE3C701B6010E94E0350E94C2
:1044B000513710E03AE0832E912CA12CB12C6115DC
:1044C00071058105910591F0EE24E394F12CEC0E39
:1044D000FD1EE10EF11CA50194010E94603A605D91
:1044E000F7016083B901CA011F5FE9CF80E31017AC
:1044F00048F4E1E0F0E0EC0FFD1FE10FF11D8083D7
:104500001F5FF5CF101313C0FE01E10FF11D80E313
:1045100081831F5F0CC0101303C08EE20E940B3218
:10452000FE01E10FF11D80810E940B32115011112B
:10453000F2CF2D960FB6F894DEBF0FBECDBFDF9140
:10454000CF911F910F91FF90EF90DF90CF90BF9090
:10455000AF909F908F9008952091900120FF08C008
:104560002BE832E441E25DE30E94373941E001C0CB
:1045700040E00C940F222091900120FF08C02BE80E
:1045800032E441E25DE30E94373944E001C043E098
:104590000C940F22EF92FF920F931F93CF9300E0A2
:1045A00011E07C01C0E0F80181918F010E940B3283
:1045B0008AE30E940B32F70161917191819191918F
:1045C0007F010E94BB22C33019F080E20E940B32AF
:1045D000CF5FC43041F7CF911F910F91FF90EF90C3
:1045E0000895CF93DF93843630F06AE00E94403A1A
:1045F000C0E3C90F03C0C0E08A3030F06AE00E9417
:10460000403AD0E3D90F01C0D0E0805D0E940B3268
:10461000DD2319F08D2F0E940B32CC2329F08C2F33
:10462000DF91CF910C940B32DF91CF910895CF930E
:10463000DF93FC018491EF012196882321F00E94F1
:104640000B32FE01F7CFDF91CF9108958EEF93E00B
:104650000C941723CF93C82F8CE094E00E9417236B
:104660008C2F0E94F122CF910C942623811104C03B
:1046700081E094E00C9417230C942A23CF92DF92CC
:10468000EF92FF92CF93DF93D82F6A017B01C22F65
:1046900084E20E940B328D2F0E94F1228DE30E9452
:1046A0000B324C2FC701B6010E940F22DF91CF9130
:1046B000FF90EF90DF90CF900C942623CF93DF9361
:1046C000D82FC62F84E20E940B328D2F0E94F12238
:1046D0008DE30E940B328C2F0E94F122DF91CF914B
:1046E0000C942623EF92FF920F931F93CF93DF93A7
:1046F00060917B0170E080E00E945E2360917E010A
:1047000070E081E00E945E2360917C0170E082E0B5
:104710000E945E2360917D0170E083E00E945E2331
:104720006091900162FB662760F970E084E00E946E
:104730005E236091900166FB662760F970E085E07A
:104740000E945E2380919001082E000C990B692F26
:10475000661F6627661F70E086E00E945E236091F8
:104760007F0170E08AE00E945E23409180015091B9
:104770008101609182017091830123E08BE00E94AE
:104780003E23409184015091850160918601709192
:10479000870123E08CE00E943E23609190016170CC
:1047A00070E08DE00E945E236091900165FB6627BA
:1047B00060F970E084E10E945E236091900163FBE8
:1047C000662760F970E085E10E945E2360919001A8
:1047D0006295617070E086E10E945E2360919101B4
:1047E00070E087E10E945E23409192015091930115
:1047F000609194017091950123E088E10E943E232D
:1048000040919601509197016091980170919901A2
:1048100023E089E10E943E2360919A0170919B01FF
:104820008AE10E945E2340919C0150919D0160911C
:104830009E0170919F0123E08BE10E943E234091F5
:1048400088015091890160918A0170918B0120E06B
:104850008EE10E943E2340918C0150918D01609128
:104860008E0170918F0120E08FE10E943E236091C4
:1048700090016695617070E080E20E945E23D4E64C
:10488000F12C0BE311E084E0E82EED0ECD2F82E059
:10489000F81691F0E3E0FE16E9F0F1E0FF1631F0D2
:1048A000F80140815181628173811AC0F801408909
:1048B00051896289738914C020E030E041E655E4F3
:1048C000F80160A171A182A193A10E94DF36AB0122
:1048D000BC0106C0F80140A951A962A973A970588A
:1048E00023E08C2F0E943E230C5F1F4FCF5FEC1202
:1048F000CECFD65FF394DC3821F6DF91CF911F91B4
:104900000F91FF90EF9008958DE50E940B320C946B
:104910002623CF93DF93CDB7DEB760970FB6F89419
:10492000DEBF0FBECDBF86E094E00E94172369E092
:1049300071E0CE0101960E947021CE0101960E9485
:10494000CA228AE30E940B3280912F010E94F12239
:104950000E94842460960FB6F894DEBF0FBECDBFD0
:10496000DF91CF9108951F920F920FB60F921124ED
:104970002F933F934F935F936F937F938F939F9367
:10498000AF93BF93EF93FF9380912A01813049F059
:104990008091B905811105C00E94853481E00E9493
:1049A0001C21FF91EF91BF91AF919F918F917F91CA
:1049B0006F915F914F913F912F910F900FBE0F908C
:1049C0001F90189593B190728091900186FD02C05E
:1049D00080E298279923A9F020E030E080E09072EF
:1049E00041E050E0992339F0BA01022E01C0660F70
:1049F0000A94EAF7862B2F5F3F4F2430310591F759
:104A0000089580E0089525982D9A8091900183FF64
:104A100009C080916B00806280936B008091680078
:104A2000816008C080916B008F7D80936B008091C6
:104A300068008E7F8093680008956F927F928F92B6
:104A40009F92AF92BF92CF92DF92EF92FF920F931D
:104A50001F93CF93DF93EB018C015B0180E1A80EE4
:104A6000B11C89E9682E96E7792E26E9822E3EE769
:104A7000932EC990D990E990F99020E030E0A901F7
:104A8000C701B6010E94D5368823B9F0A701960167
:104A9000F80160817181828193810E94DF366B0110
:104AA0007C01E894F7F89301A401C701B6010E94C4
:104AB000F738181614F0360147010C5F1F4FCA155E
:104AC000DB05B9F6B301C401DF91CF911F910F91BE
:104AD000FF90EF90DF90CF90BF90AF909F908F901E
:104AE0007F906F9008954F925F926F927F92AF92F6
:104AF000BF92CF92DF92EF92FF920F931F93CF93CB
:104B0000DF93EC015C0180E1A80EB11C8E01C12C89
:104B1000D12C7601F80141905190619071908F01F4
:104B200020E030E0A901C301B2010E94D5368823FC
:104B300071F0A3019201C301B2010E9437399B01B8
:104B4000AC01C701B6010E94E0356B017C010A157A
:104B50001B0501F7C701B6010E94D6396B017C0124
:104B60009B01AC0160E070E080E89FE30E94DF36CB
:104B70002B013C01A3019201688179818A819B818B
:104B80000E9437396993799389939993AC16BD063E
:104B900089F7C701B601DF91CF911F910F91FF9067
:104BA000EF90DF90CF90BF90AF907F906F905F902D
:104BB0004F9008951F93CF93DF93142F20E030E0A0
:104BC00040EA51E40E9437390E94BE360E945837AD
:104BD000EB012097D1F080912B01811116C01111AA
:104BE00003C00E94123306C00E94B11C80912C01A8
:104BF00081FD0BC02FEF80E792E021508040904074
:104C0000E1F700C000002197E4CFDF91CF911F9121
:104C10000895EAE1F1E0A4E9B5E041915191619193
:104C200071914D935D936D937D9381E0EA32F80726
:104C3000A1F70895BF92CF92DF92EF92FF920F9368
:104C40001F93CF93DF937C01FC0106A517A5D0A984
:104C5000C1A9858980FF18C06091320170E080E0B1
:104C600090E00E9489372AE037ED43E25CE30E943E
:104C700037399B01AC01B8018D2F9C2F0E94373929
:104C80008B01D82FC92F2DC082FD17C06091310133
:104C900070E080E090E00E9489372AE037ED43E23F
:104CA0005CE30E9437399B01AC01B8018D2F9C2F2A
:104CB0000E9437398B01D82FC92FF701B2A4C3A4A2
:104CC000D4A4F5A42B2D3C2D4D2D5F2DB8018D2F97
:104CD0009C2F0E94F738181624F40B2D1C2DDD2D67
:104CE000CF2D20E030E040E85FE3B8018D2F9C2F0E
:104CF0000E94F738181624F000E010E0D0E8CFE367
:104D0000B8018D2F9C2FDF91CF911F910F91FF90B4
:104D1000EF90DF90CF90BF90089580919205909191
:104D20009305981739F026E3829FC00111248E5C09
:104D30009D4F089580E090E0089584E2E4E9F5E075
:104D4000DF011D928A95E9F7109292051092930562
:104D500081E0809331021092300208952F923F92A9
:104D60004F925F926F927F928F929F92AF92BF927B
:104D7000CF92DF92EF92FF920F931F93CF93DF9327
:104D800030909305311002C0D0E101C0D32DD15035
:104D9000C0913002CD1709F416C1ED2EF12C26E397
:104DA000D29F800111240E5C1D4FF801A28CB38CA0
:104DB000C48CD58C668D778D80A191A19B01AC01AF
:104DC0000E94E035F80122A133A144A155A10E941F
:104DD00037394B018C019B01AC01B501C6010E9422
:104DE000D53687FD02C05401680186E38E9DF0012F
:104DF0008F9DF00D1124EE5CFD4FC501D601868B11
:104E0000978BA08FB18FD11101C0D0E1D150CD13BC
:104E100007C080919205C81368C00E94223165C006
:104E200026E32E9DC0012F9D900D11249C012E5C28
:104E30003D4F790196E3292EAD2EB12C2A9CC0015D
:104E40002B9C900D1124FC01EE5CFD4F6F01D111E4
:104E500001C0D0E1D150809192058D1302C00E9413
:104E600022312A9C80012B9C100D11240E5C1D4FB9
:104E7000F801828C938CA48CB58CA5019401668971
:104E80007789808D918D0E94D536882359F1F8015C
:104E9000668D778D80A191A19B01AC010E94E035C8
:104EA000F80122A133A144A155A10E943739F7018D
:104EB00026893789408D518D0E94E0352B013C01B8
:104EC0009B01AC01C501B4010E94F738F801181626
:104ED0002CF4468A578A608E718E04C0868A978A1F
:104EE000A08EB18E7601CD13A7CFF6E3CF9F8001C0
:104EF00011240E5C1D4FCF5FC03109F4C0E0D0918A
:104F0000300286E3282EC31509F45BC0CC2ED12CC9
:104F10002C9CC0012D9C900D11249C012E5C3D4FBA
:104F20007901F80146885788608C718CF901868870
:104F30009788A08CB18CA5019401C301B2010E9495
:104F4000D53687FF24C0F801668D778D80A191A1A9
:104F50009B01AC010E94E035F80122A133A144A1DC
:104F600055A10E943739A30192010E94E0352B011F
:104F70003C019B01AC01C501B4010E94F738181631
:104F800034F4F701468A578A608E718EDC2F2C9C90
:104F9000F0012D9CF00D1124EE5CFD4F228D338D20
:104FA000448D558D66897789808D918D0E94D53687
:104FB000811101C0DC2FCF5FC03109F4C0E087014F
:104FC000A2CFD0933002DF91CF911F910F91FF902C
:104FD000EF90DF90CF90BF90AF909F908F907F9099
:104FE0006F905F904F903F902F9008959F92AF9257
:104FF000BF92CF92DF92EF92FF920F931F93CF93C6
:10500000DF935B018A017C01E40EF51EEC01912C1B
:105010006B01C81AD90AC6018C0F9D1FCE15DF057A
:1050200089F00E946829911008C0292D990C330B32
:10503000232F221F2227221F01C021E0982E920E2B
:105040008993E9CFC501800F911F0E94682921E053
:1050500030E0981611F020E030E0C901DF91CF91E7
:105060001F910F91FF90EF90DF90CF90BF90AF9086
:105070009F9008959F92AF92BF92CF92DF92EF924E
:10508000FF920F931F93CF93DF935C018A017B0103
:10509000E40EF51EEB01912C6C01C61AD70ACE0165
:1050A0008C0D9D1DCE15DF0589F0911008C0292DAE
:1050B000990C330B232F221F2227221F01C021E02E
:1050C0006991922E960E0E944629E9CF692DC5015D
:1050D000800F911FDF91CF911F910F91FF90EF9063
:1050E000DF90CF90BF90AF909F900C944629CF93C4
:1050F000DF9321E5829FC0011124EC01DD5F40E5D3
:1051000050E0BE0189EA97E00E94F627892B69F4F6
:105110001092A9070E94243440E550E069EA77E044
:10512000CE010E943A2880E001C081E0DF91CF915A
:1051300008951F93CF93DF93C0E9D1E01881812FA9
:105140008F7D88836AE080E090E00E94462945E6F2
:1051500050E06BE371E081E090E00E943A28188310
:10516000DF91CF911F9108950F931F93CF93C82F75
:105170008B010E94243421E1C29FC001112440E12F
:1051800050E0B8019E5FCF911F910F910C943A2887
:105190001F93CF93DF93182FEB0181E1189FB0018C
:1051A00011247E5F40E150E0CE010E94F627892B5A
:1051B00059F480E1FE0111928A95E9F7BE01812F31
:1051C0000E94B42880E001C081E0DF91CF911F915F
:1051D0000895EF92FF920F931F93CF93DF93CDB774
:1051E000DEB760970FB6F894DEBF0FBECDBF182FA5
:1051F00080FF0BC085E6E9E9F3E0ABE3B1E00590A1
:105200000D928A95E1F70E94992811FF10C0CE01F6
:1052100001967C0180E1F70111928A95E9F700E09F
:10522000B701802F0E94B4280F5F0830C9F712FF22
:1052300014C060E080E093E00E94462960E081E0D5
:1052400093E00E94462960E081E593E00E944629B0
:1052500060E082E593E00E94462913FF0AC060E007
:105260008EEA93E00E94462960E08FEA93E00E9474
:10527000462960960FB6F894DEBF0FBECDBFDF9112
:10528000CF911F910F91FF90EF900895F894F999A5
:10529000FECF92BD81BD81E08FBB80B58627482FB0
:1052A000082E000C550B262F30E024233523232B0A
:1052B00039F06F3F19F060BD84E006C084E104C09E
:1052C000882321F060BD84E28FBBF99A7894089519
:1052D000F999FECF92BD81BD81E08FBB80B5089565
:1052E0002F923F924F925F926F927F928F929F92F6
:1052F000AF92BF92CF92DF92EF92FF920F931F93E4
:10530000CF93DF93CDB7DEB7EC970FB6F894DEBF3F
:105310000FBECDBF80912E0180FD7BC79091EA0525
:105320008091B406981709F474C78091B7069091DC
:10533000B806892B09F00BC310912E0112FF09C08A
:105340008091930526E3289FC00111248E5C9D4F18
:1053500002C00E948D269093B8068093B7062090D5
:10536000B7063090B8062114310409F452C70091F1
:105370008506802F817000FF03C010928506EAC069
:10538000909184069F5F953009F0892F8093840661
:10539000E82EF12C36E13E9DF0013F9DF00D1124E9
:1053A000EA5EF94FF093B606E093B506D101549644
:1053B0009C915497948BE6E18E9FC001112420E0CC
:1053C00030E04D915D916D917D91F901E80FF91FEC
:1053D000EA5EF94F689412F8440F551F661F771F55
:1053E0001694D1F740835183628373832C5F3F4FC0
:1053F0002031310531F726E12E9DF0012F9DF00D72
:1054000011249F012A5E394FF10180899189A28977
:10541000B38943E0880F991FAA1FBB1F4A95D1F794
:10542000F901808B918BA28BB38BD10150966D913A
:105430007D918D919C9153970E94873760938A0646
:1054400070938B0680938C0690938D06F10122A1B8
:1054500033A144A155A10E94DF369B01AC016093AA
:105460008E0670938F06809390069093910660E06D
:1054700070E080EA9FE30E94DF36609392067093AB
:105480009306809394069093950610928606109248
:105490008706109288061092890611FD02C003FF4C
:1054A0001FC06091A3067091A4068091A5069091FB
:1054B000A60660939B0670939C0680939D0690932E
:1054C0009E069B01AC010E943739D10156966D931F
:1054D0007D938D939C935997077F009385060FC00A
:1054E000F10166897789808D918D0E94D63960930C
:1054F0009B0670939C0680939D0690939E06F6E112
:10550000FE9DC001FF9D900D11249C012A5E394F24
:105510007901D90155961C928091900181FF1AC0A2
:10552000F101858985FF16C026A537A540A951A997
:1055300060E070E080E89FE30E94DF366093AF0692
:105540007093B0068093B1069093B206E1E0D70164
:105550005596EC9310929706109298061092990621
:1055600010929A06D1015E962D913D914D915C91DC
:10557000919729833A834B835C8360E070E080E0FD
:105580009FE30E94DF366D837E838F839887F101CE
:1055900042A053A064A075A086889788A08CB18C87
:1055A00011FF44C0F2E0F0939606A50194010E9419
:1055B00037399B01AC01C301B2010E94DF356B0199
:1055C0007C0120E030E0A9010E94D53687FF1DC094
:1055D00029813A814B815C81CA01B9010E94E03581
:1055E000A30192010E9437399B01AC01C501B401AE
:1055F0000E94DF350E94D6396093A3067093A406FB
:105600008093A5069093A6069FC1C0929706D0925C
:105610009806E0929906F0929A061092A3061092CC
:10562000A4061092A5061092A6068EC110929606A8
:105630004092A7065092A8066092A9067092AA0608
:1056400012FF0CC01092A3061092A4061092A50699
:105650001092A606C12CD12C760124C0E0919205AF
:10566000EF5FE03109F4E0E0809193058E1759F087
:1056700026E32E9FF0011124EE5CFD4FC688D788EB
:10568000E08CF18C03C0C12CD12C7601C701B6018E
:105690000E94D6396093A3067093A4068093A50652
:1056A0009093A606C1010E941A26698B7A8B8B8B78
:1056B0009C8B9B01AC010E94373969877A878B8765
:1056C0009C87A50194010E94D53687FF6CC029856F
:1056D0003A854B855C85C501B4010E94DF352D817B
:1056E0003E814F8158850E9437399B01AC01C3012F
:1056F000B2010E94DF356093A7067093A8068093DD
:10570000A9069093AA0620E030E0A9010E94D536B0
:1057100018162CF132E03093960629813A814B819C
:105720005C81CA01B9010E94E035A30192010E9487
:1057300037399B01AC01C501B4010E94DF350E94DD
:10574000D6396093A3067093A4068093A506909320
:10575000A60680918506886080938506F5C0A7011E
:10576000960169857A858B859C850E94DF352D8120
:105770003E814F8158850E9437396093AB06709304
:10578000AC068093AD069093AE0689899A89AB8961
:10579000BC8980939F069093A006A093A106B09326
:1057A000A20693E0B6C0A7019601C501B4010E940C
:1057B000DF352D813E814F8158850E943739A30105
:1057C00092010E94E03520E030E040E05FE30E947B
:1057D00037396D877E878F87988B20E030E0A9016D
:1057E0000E94F73818160CF097C02D853E854F851E
:1057F0005889C301B2010E94F73818160CF088C00E
:10580000A701960169857A858B859C850E94DF3585
:105810002D813E814F8158850E9437399B01AC0113
:105820006093AB067093AC068093AD069093AE0682
:105830006D857E858F8598890E94F7381816BCF58E
:1058400029893A894B895C8920939F063093A00669
:105850004093A1065093A206A501940169857A851B
:105860008B859C850E94D536811104C031E0309330
:1058700096066AC0A501940169857A858B859C8509
:105880000E94DF352D813E814F8158850E94373936
:105890009B01AC01C301B2010E94DF356093A706F2
:1058A0007093A8068093A9069093AA064DC08D8593
:1058B0009E85AF85B8898093A7069093A806A0938C
:1058C000A906B093AA068093AB069093AC06A0936A
:1058D000AD06B093AE0629813A814B815C81CA0145
:1058E000B9010E94E0352D853E854F8558890E947B
:1058F0003739A70196010E94E0350E94D63960939E
:105900009F067093A0068093A1069093A2061CC0E8
:1059100092E09093960618C01092A7061092A806DF
:105920001092A9061092AA068091A3069091A4064F
:10593000A091A506B091A60680939F069093A0061D
:10594000A093A106B093A206186010932E01809137
:105950001506A82FB0E0BA8BA98B27E02A9FF0018B
:105960002B9FF00D1124E551FA4F8091840684831A
:105970004091B7065091B8065CAF4BAFDA019296F2
:10598000BC91BAA3FA01F3A1FBA3DA019496BC91EE
:10599000BCA3FA01F5A1FDA32091920630919306D4
:1059A00040919406509195066AA17BA18B2F9F2F61
:1059B0000E94DF356EA77FA788AB99AB20E030E06F
:1059C000A9010E94D53687FF04C01EA61FA618AAEB
:1059D00019AA20919F062E8B3091A0063F8B4091F3
:1059E000A106488F5091A206598F8091A7068A8FF1
:1059F0009091A8069B8FA091A906AC8FB091AA06A2
:105A0000BD8FE0919B06E983F0919C06FD83209178
:105A10009D06298730919E063D874091AB064EA397
:105A20005091AC065FA38091AD0688A79091AE0619
:105A300099A7A0919606AD8BB0919706BAA7E09171
:105A40009806EBA7F0919906FCA720919A062DA73E
:105A50003091A3063BAB4091A4064CAB5091A506F8
:105A60005DAB8091A6068EAB2EA13FA148A5592F14
:105A70006A8D7B8D8C8D9D8D0E94D536811103C0E2
:105A800092E09AAB02C0A1E0AAAB3AA02BA01CA165
:105A90000DA18EE3C82E83ECD82E8EE2E82E89E38A
:105AA000F82E412C512C3201CE8EDF8EE8A2F9A2C5
:105AB0003D89313009F4F2C0ABADBCAD313008F4F2
:105AC0007BC0333009F020C15E962D913D914D9100
:105AD0005C919197C701B6010E9437394B015C0177
